{
  "_format": "hh-sol-artifact-1",
  "contractName": "BattlePetNFT",
  "sourceName": "contracts/BattlePetNFT.sol",
  "abi": [
    {
      "inputs": [],
      "stateMutability": "nonpayable",
      "type": "constructor"
    },
    {
      "inputs": [
        {
          "internalType": "address",
          "name": "sender",
          "type": "address"
        },
        {
          "internalType": "uint256",
          "name": "tokenId",
          "type": "uint256"
        },
        {
          "internalType": "address",
          "name": "owner",
          "type": "address"
        }
      ],
      "name": "ERC721IncorrectOwner",
      "type": "error"
    },
    {
      "inputs": [
        {
          "internalType": "address",
          "name": "operator",
          "type": "address"
        },
        {
          "internalType": "uint256",
          "name": "tokenId",
          "type": "uint256"
        }
      ],
      "name": "ERC721InsufficientApproval",
      "type": "error"
    },
    {
      "inputs": [
        {
          "internalType": "address",
          "name": "approver",
          "type": "address"
        }
      ],
      "name": "ERC721InvalidApprover",
      "type": "error"
    },
    {
      "inputs": [
        {
          "internalType": "address",
          "name": "operator",
          "type": "address"
        }
      ],
      "name": "ERC721InvalidOperator",
      "type": "error"
    },
    {
      "inputs": [
        {
          "internalType": "address",
          "name": "owner",
          "type": "address"
        }
      ],
      "name": "ERC721InvalidOwner",
      "type": "error"
    },
    {
      "inputs": [
        {
          "internalType": "address",
          "name": "receiver",
          "type": "address"
        }
      ],
      "name": "ERC721InvalidReceiver",
      "type": "error"
    },
    {
      "inputs": [
        {
          "internalType": "address",
          "name": "sender",
          "type": "address"
        }
      ],
      "name": "ERC721InvalidSender",
      "type": "error"
    },
    {
      "inputs": [
        {
          "internalType": "uint256",
          "name": "tokenId",
          "type": "uint256"
        }
      ],
      "name": "ERC721NonexistentToken",
      "type": "error"
    },
    {
      "inputs": [
        {
          "internalType": "address",
          "name": "owner",
          "type": "address"
        }
      ],
      "name": "OwnableInvalidOwner",
      "type": "error"
    },
    {
      "inputs": [
        {
          "internalType": "address",
          "name": "account",
          "type": "address"
        }
      ],
      "name": "OwnableUnauthorizedAccount",
      "type": "error"
    },
    {
      "anonymous": false,
      "inputs": [
        {
          "indexed": true,
          "internalType": "address",
          "name": "owner",
          "type": "address"
        },
        {
          "indexed": true,
          "internalType": "address",
          "name": "approved",
          "type": "address"
        },
        {
          "indexed": true,
          "internalType": "uint256",
          "name": "tokenId",
          "type": "uint256"
        }
      ],
      "name": "Approval",
      "type": "event"
    },
    {
      "anonymous": false,
      "inputs": [
        {
          "indexed": true,
          "internalType": "address",
          "name": "owner",
          "type": "address"
        },
        {
          "indexed": true,
          "internalType": "address",
          "name": "operator",
          "type": "address"
        },
        {
          "indexed": false,
          "internalType": "bool",
          "name": "approved",
          "type": "bool"
        }
      ],
      "name": "ApprovalForAll",
      "type": "event"
    },
    {
      "anonymous": false,
      "inputs": [
        {
          "indexed": true,
          "internalType": "address",
          "name": "previousOwner",
          "type": "address"
        },
        {
          "indexed": true,
          "internalType": "address",
          "name": "newOwner",
          "type": "address"
        }
      ],
      "name": "OwnershipTransferred",
      "type": "event"
    },
    {
      "anonymous": false,
      "inputs": [
        {
          "indexed": true,
          "internalType": "address",
          "name": "from",
          "type": "address"
        },
        {
          "indexed": true,
          "internalType": "address",
          "name": "to",
          "type": "address"
        },
        {
          "indexed": true,
          "internalType": "uint256",
          "name": "tokenId",
          "type": "uint256"
        }
      ],
      "name": "Transfer",
      "type": "event"
    },
    {
      "inputs": [
        {
          "internalType": "address",
          "name": "to",
          "type": "address"
        },
        {
          "internalType": "uint256",
          "name": "tokenId",
          "type": "uint256"
        }
      ],
      "name": "approve",
      "outputs": [],
      "stateMutability": "nonpayable",
      "type": "function"
    },
    {
      "inputs": [
        {
          "internalType": "address",
          "name": "spender",
          "type": "address"
        },
        {
          "internalType": "uint256",
          "name": "tokenId",
          "type": "uint256"
        }
      ],
      "name": "approveForMarket",
      "outputs": [],
      "stateMutability": "nonpayable",
      "type": "function"
    },
    {
      "inputs": [
        {
          "internalType": "address",
          "name": "owner",
          "type": "address"
        }
      ],
      "name": "balanceOf",
      "outputs": [
        {
          "internalType": "uint256",
          "name": "",
          "type": "uint256"
        }
      ],
      "stateMutability": "view",
      "type": "function"
    },
    {
      "inputs": [
        {
          "internalType": "uint256",
          "name": "tokenId",
          "type": "uint256"
        }
      ],
      "name": "getApproved",
      "outputs": [
        {
          "internalType": "address",
          "name": "",
          "type": "address"
        }
      ],
      "stateMutability": "view",
      "type": "function"
    },
    {
      "inputs": [
        {
          "internalType": "address",
          "name": "owner",
          "type": "address"
        },
        {
          "internalType": "address",
          "name": "operator",
          "type": "address"
        }
      ],
      "name": "isApprovedForAll",
      "outputs": [
        {
          "internalType": "bool",
          "name": "",
          "type": "bool"
        }
      ],
      "stateMutability": "view",
      "type": "function"
    },
    {
      "inputs": [
        {
          "internalType": "address",
          "name": "to",
          "type": "address"
        }
      ],
      "name": "mint",
      "outputs": [
        {
          "internalType": "uint256",
          "name": "",
          "type": "uint256"
        }
      ],
      "stateMutability": "nonpayable",
      "type": "function"
    },
    {
      "inputs": [],
      "name": "name",
      "outputs": [
        {
          "internalType": "string",
          "name": "",
          "type": "string"
        }
      ],
      "stateMutability": "view",
      "type": "function"
    },
    {
      "inputs": [],
      "name": "owner",
      "outputs": [
        {
          "internalType": "address",
          "name": "",
          "type": "address"
        }
      ],
      "stateMutability": "view",
      "type": "function"
    },
    {
      "inputs": [
        {
          "internalType": "uint256",
          "name": "tokenId",
          "type": "uint256"
        }
      ],
      "name": "ownerOf",
      "outputs": [
        {
          "internalType": "address",
          "name": "",
          "type": "address"
        }
      ],
      "stateMutability": "view",
      "type": "function"
    },
    {
      "inputs": [],
      "name": "renounceOwnership",
      "outputs": [],
      "stateMutability": "nonpayable",
      "type": "function"
    },
    {
      "inputs": [
        {
          "internalType": "address",
          "name": "from",
          "type": "address"
        },
        {
          "internalType": "address",
          "name": "to",
          "type": "address"
        },
        {
          "internalType": "uint256",
          "name": "tokenId",
          "type": "uint256"
        }
      ],
      "name": "safeTransferFrom",
      "outputs": [],
      "stateMutability": "nonpayable",
      "type": "function"
    },
    {
      "inputs": [
        {
          "internalType": "address",
          "name": "from",
          "type": "address"
        },
        {
          "internalType": "address",
          "name": "to",
          "type": "address"
        },
        {
          "internalType": "uint256",
          "name": "tokenId",
          "type": "uint256"
        },
        {
          "internalType": "bytes",
          "name": "data",
          "type": "bytes"
        }
      ],
      "name": "safeTransferFrom",
      "outputs": [],
      "stateMutability": "nonpayable",
      "type": "function"
    },
    {
      "inputs": [
        {
          "internalType": "address",
          "name": "operator",
          "type": "address"
        },
        {
          "internalType": "bool",
          "name": "approved",
          "type": "bool"
        }
      ],
      "name": "setApprovalForAll",
      "outputs": [],
      "stateMutability": "nonpayable",
      "type": "function"
    },
    {
      "inputs": [
        {
          "internalType": "bytes4",
          "name": "interfaceId",
          "type": "bytes4"
        }
      ],
      "name": "supportsInterface",
      "outputs": [
        {
          "internalType": "bool",
          "name": "",
          "type": "bool"
        }
      ],
      "stateMutability": "view",
      "type": "function"
    },
    {
      "inputs": [],
      "name": "symbol",
      "outputs": [
        {
          "internalType": "string",
          "name": "",
          "type": "string"
        }
      ],
      "stateMutability": "view",
      "type": "function"
    },
    {
      "inputs": [
        {
          "internalType": "uint256",
          "name": "tokenId",
          "type": "uint256"
        }
      ],
      "name": "tokenURI",
      "outputs": [
        {
          "internalType": "string",
          "name": "",
          "type": "string"
        }
      ],
      "stateMutability": "view",
      "type": "function"
    },
    {
      "inputs": [
        {
          "internalType": "address",
          "name": "from",
          "type": "address"
        },
        {
          "internalType": "address",
          "name": "to",
          "type": "address"
        },
        {
          "internalType": "uint256",
          "name": "tokenId",
          "type": "uint256"
        }
      ],
      "name": "transferFrom",
      "outputs": [],
      "stateMutability": "nonpayable",
      "type": "function"
    },
    {
      "inputs": [
        {
          "internalType": "address",
          "name": "newOwner",
          "type": "address"
        }
      ],
      "name": "transferOwnership",
      "outputs": [],
      "stateMutability": "nonpayable",
      "type": "function"
    }
  ],
  "bytecode": "0x60806040523480156200001157600080fd5b50336040518060400160405280600981526020017f426174746c6550657400000000000000000000000000000000000000000000008152506040518060400160405280600481526020017f4250455400000000000000000000000000000000000000000000000000000000815250816000908162000090919062000472565b508060019081620000a2919062000472565b505050600073ffffffffffffffffffffffffffffffffffffffff168173ffffffffffffffffffffffffffffffffffffffff16036200011a5760006040517f1e4fbdf70000000000000000000000000000000000000000000000000000000081526004016200011191906200059e565b60405180910390fd5b6200012b816200013260201b60201c565b50620005bb565b6000600660009054906101000a900473ffffffffffffffffffffffffffffffffffffffff16905081600660006101000a81548173ffffffffffffffffffffffffffffffffffffffff021916908373ffffffffffffffffffffffffffffffffffffffff1602179055508173ffffffffffffffffffffffffffffffffffffffff168173ffffffffffffffffffffffffffffffffffffffff167f8be0079c531659141344cd1fd0a4f28419497f9722a3daafe3b4186f6b6457e060405160405180910390a35050565b600081519050919050565b7f4e487b7100000000000000000000000000000000000000000000000000000000600052604160045260246000fd5b7f4e487b7100000000000000000000000000000000000000000000000000000000600052602260045260246000fd5b600060028204905060018216806200027a57607f821691505b60208210810362000290576200028f62000232565b5b50919050565b60008190508160005260206000209050919050565b60006020601f8301049050919050565b600082821b905092915050565b600060088302620002fa7fffffffffffffffffffffffffffffffffffffffffffffffffffffffffffffffff82620002bb565b620003068683620002bb565b95508019841693508086168417925050509392505050565b6000819050919050565b6000819050919050565b6000620003536200034d62000347846200031e565b62000328565b6200031e565b9050919050565b6000819050919050565b6200036f8362000332565b620003876200037e826200035a565b848454620002c8565b825550505050565b600090565b6200039e6200038f565b620003ab81848462000364565b505050565b5b81811015620003d357620003c760008262000394565b600181019050620003b1565b5050565b601f8211156200042257620003ec8162000296565b620003f784620002ab565b8101602085101562000407578190505b6200041f6200041685620002ab565b830182620003b0565b50505b505050565b600082821c905092915050565b6000620004476000198460080262000427565b1980831691505092915050565b600062000462838362000434565b9150826002028217905092915050565b6200047d82620001f8565b67ffffffffffffffff81111562000499576200049862000203565b5b620004a5825462000261565b620004b2828285620003d7565b600060209050601f831160018114620004ea5760008415620004d5578287015190505b620004e1858262000454565b86555062000551565b601f198416620004fa8662000296565b60005b828110156200052457848901518255600182019150602085019450602081019050620004fd565b8683101562000544578489015162000540601f89168262000434565b8355505b6001600288020188555050505b505050505050565b600073ffffffffffffffffffffffffffffffffffffffff82169050919050565b6000620005868262000559565b9050919050565b620005988162000579565b82525050565b6000602082019050620005b560008301846200058d565b92915050565b61211c80620005cb6000396000f3fe608060405234801561001057600080fd5b50600436106101165760003560e01c8063715018a6116100a2578063b88d4fde11610071578063b88d4fde146102df578063c87b56dd146102fb578063de991a0a1461032b578063e985e9c514610347578063f2fde38b1461037757610116565b8063715018a61461027d5780638da5cb5b1461028757806395d89b41146102a5578063a22cb465146102c357610116565b806323b872dd116100e957806323b872dd146101b557806342842e0e146101d15780636352211e146101ed5780636a6278421461021d57806370a082311461024d57610116565b806301ffc9a71461011b57806306fdde031461014b578063081812fc14610169578063095ea7b314610199575b600080fd5b610135600480360381019061013091906118ef565b610393565b6040516101429190611937565b60405180910390f35b610153610475565b60405161016091906119e2565b60405180910390f35b610183600480360381019061017e9190611a3a565b610507565b6040516101909190611aa8565b60405180910390f35b6101b360048036038101906101ae9190611aef565b610523565b005b6101cf60048036038101906101ca9190611b2f565b610539565b005b6101eb60048036038101906101e69190611b2f565b61063b565b005b61020760048036038101906102029190611a3a565b61065b565b6040516102149190611aa8565b60405180910390f35b61023760048036038101906102329190611b82565b61066d565b6040516102449190611bbe565b60405180910390f35b61026760048036038101906102629190611b82565b6106a5565b6040516102749190611bbe565b60405180910390f35b61028561075f565b005b61028f610773565b60405161029c9190611aa8565b60405180910390f35b6102ad61079d565b6040516102ba91906119e2565b60405180910390f35b6102dd60048036038101906102d89190611c05565b61082f565b005b6102f960048036038101906102f49190611d7a565b610845565b005b61031560048036038101906103109190611a3a565b61086a565b60405161032291906119e2565b60405180910390f35b61034560048036038101906103409190611aef565b6108d3565b005b610361600480360381019061035c9190611dfd565b6108e1565b60405161036e9190611937565b60405180910390f35b610391600480360381019061038c9190611b82565b610975565b005b60007f80ac58cd000000000000000000000000000000000000000000000000000000007bffffffffffffffffffffffffffffffffffffffffffffffffffffffff1916827bffffffffffffffffffffffffffffffffffffffffffffffffffffffff1916148061045e57507f5b5e139f000000000000000000000000000000000000000000000000000000007bffffffffffffffffffffffffffffffffffffffffffffffffffffffff1916827bffffffffffffffffffffffffffffffffffffffffffffffffffffffff1916145b8061046e575061046d826109fb565b5b9050919050565b60606000805461048490611e6c565b80601f01602080910402602001604051908101604052809291908181526020018280546104b090611e6c565b80156104fd5780601f106104d2576101008083540402835291602001916104fd565b820191906000526020600020905b8154815290600101906020018083116104e057829003601f168201915b5050505050905090565b600061051282610a65565b5061051c82610aed565b9050919050565b6105358282610530610b2a565b610b32565b5050565b600073ffffffffffffffffffffffffffffffffffffffff168273ffffffffffffffffffffffffffffffffffffffff16036105ab5760006040517f64a0ae920000000000000000000000000000000000000000000000000000000081526004016105a29190611aa8565b60405180910390fd5b60006105bf83836105ba610b2a565b610b44565b90508373ffffffffffffffffffffffffffffffffffffffff168173ffffffffffffffffffffffffffffffffffffffff1614610635578382826040517f64283d7b00000000000000000000000000000000000000000000000000000000815260040161062c93929190611e9d565b60405180910390fd5b50505050565b61065683838360405180602001604052806000815250610845565b505050565b600061066682610a65565b9050919050565b6000610677610d5e565b60006007600081548092919061068c90611f03565b91905055905061069c8382610de5565b80915050919050565b60008073ffffffffffffffffffffffffffffffffffffffff168273ffffffffffffffffffffffffffffffffffffffff16036107185760006040517f89c62b6400000000000000000000000000000000000000000000000000000000815260040161070f9190611aa8565b60405180910390fd5b600360008373ffffffffffffffffffffffffffffffffffffffff1673ffffffffffffffffffffffffffffffffffffffff168152602001908152602001600020549050919050565b610767610d5e565b6107716000610ede565b565b6000600660009054906101000a900473ffffffffffffffffffffffffffffffffffffffff16905090565b6060600180546107ac90611e6c565b80601f01602080910402602001604051908101604052809291908181526020018280546107d890611e6c565b80156108255780601f106107fa57610100808354040283529160200191610825565b820191906000526020600020905b81548152906001019060200180831161080857829003601f168201915b5050505050905090565b61084161083a610b2a565b8383610fa4565b5050565b610850848484610539565b61086461085b610b2a565b85858585611113565b50505050565b606061087582610a65565b5060006108806112c4565b905060008151116108a057604051806020016040528060008152506108cb565b806108aa846112db565b6040516020016108bb929190611f87565b6040516020818303038152906040525b915050919050565b6108dd8282610523565b5050565b6000600560008473ffffffffffffffffffffffffffffffffffffffff1673ffffffffffffffffffffffffffffffffffffffff16815260200190815260200160002060008373ffffffffffffffffffffffffffffffffffffffff1673ffffffffffffffffffffffffffffffffffffffff16815260200190815260200160002060009054906101000a900460ff16905092915050565b61097d610d5e565b600073ffffffffffffffffffffffffffffffffffffffff168173ffffffffffffffffffffffffffffffffffffffff16036109ef5760006040517f1e4fbdf70000000000000000000000000000000000000000000000000000000081526004016109e69190611aa8565b60405180910390fd5b6109f881610ede565b50565b60007f01ffc9a7000000000000000000000000000000000000000000000000000000007bffffffffffffffffffffffffffffffffffffffffffffffffffffffff1916827bffffffffffffffffffffffffffffffffffffffffffffffffffffffff1916149050919050565b600080610a71836113a9565b9050600073ffffffffffffffffffffffffffffffffffffffff168173ffffffffffffffffffffffffffffffffffffffff1603610ae457826040517f7e273289000000000000000000000000000000000000000000000000000000008152600401610adb9190611bbe565b60405180910390fd5b80915050919050565b60006004600083815260200190815260200160002060009054906101000a900473ffffffffffffffffffffffffffffffffffffffff169050919050565b600033905090565b610b3f83838360016113e6565b505050565b600080610b50846113a9565b9050600073ffffffffffffffffffffffffffffffffffffffff168373ffffffffffffffffffffffffffffffffffffffff1614610b9257610b918184866115ab565b5b600073ffffffffffffffffffffffffffffffffffffffff168173ffffffffffffffffffffffffffffffffffffffff1614610c2357610bd46000856000806113e6565b6001600360008373ffffffffffffffffffffffffffffffffffffffff1673ffffffffffffffffffffffffffffffffffffffff168152602001908152602001600020600082825403925050819055505b600073ffffffffffffffffffffffffffffffffffffffff168573ffffffffffffffffffffffffffffffffffffffff1614610ca6576001600360008773ffffffffffffffffffffffffffffffffffffffff1673ffffffffffffffffffffffffffffffffffffffff168152602001908152602001600020600082825401925050819055505b846002600086815260200190815260200160002060006101000a81548173ffffffffffffffffffffffffffffffffffffffff021916908373ffffffffffffffffffffffffffffffffffffffff160217905550838573ffffffffffffffffffffffffffffffffffffffff168273ffffffffffffffffffffffffffffffffffffffff167fddf252ad1be2c89b69c2b068fc378daa952ba7f163c4a11628f55a4df523b3ef60405160405180910390a4809150509392505050565b610d66610b2a565b73ffffffffffffffffffffffffffffffffffffffff16610d84610773565b73ffffffffffffffffffffffffffffffffffffffff1614610de357610da7610b2a565b6040517f118cdaa7000000000000000000000000000000000000000000000000000000008152600401610dda9190611aa8565b60405180910390fd5b565b600073ffffffffffffffffffffffffffffffffffffffff168273ffffffffffffffffffffffffffffffffffffffff1603610e575760006040517f64a0ae92000000000000000000000000000000000000000000000000000000008152600401610e4e9190611aa8565b60405180910390fd5b6000610e6583836000610b44565b9050600073ffffffffffffffffffffffffffffffffffffffff168173ffffffffffffffffffffffffffffffffffffffff1614610ed95760006040517f73c6ac6e000000000000000000000000000000000000000000000000000000008152600401610ed09190611aa8565b60405180910390fd5b505050565b6000600660009054906101000a900473ffffffffffffffffffffffffffffffffffffffff16905081600660006101000a81548173ffffffffffffffffffffffffffffffffffffffff021916908373ffffffffffffffffffffffffffffffffffffffff1602179055508173ffffffffffffffffffffffffffffffffffffffff168173ffffffffffffffffffffffffffffffffffffffff167f8be0079c531659141344cd1fd0a4f28419497f9722a3daafe3b4186f6b6457e060405160405180910390a35050565b600073ffffffffffffffffffffffffffffffffffffffff168273ffffffffffffffffffffffffffffffffffffffff160361101557816040517f5b08ba1800000000000000000000000000000000000000000000000000000000815260040161100c9190611aa8565b60405180910390fd5b80600560008573ffffffffffffffffffffffffffffffffffffffff1673ffffffffffffffffffffffffffffffffffffffff16815260200190815260200160002060008473ffffffffffffffffffffffffffffffffffffffff1673ffffffffffffffffffffffffffffffffffffffff16815260200190815260200160002060006101000a81548160ff0219169083151502179055508173ffffffffffffffffffffffffffffffffffffffff168373ffffffffffffffffffffffffffffffffffffffff167f17307eab39ab6107e8899845ad3d59bd9653f200f220920489ca2b5937696c31836040516111069190611937565b60405180910390a3505050565b60008373ffffffffffffffffffffffffffffffffffffffff163b11156112bd578273ffffffffffffffffffffffffffffffffffffffff1663150b7a02868685856040518563ffffffff1660e01b81526004016111729493929190612000565b6020604051808303816000875af19250505080156111ae57506040513d601f19601f820116820180604052508101906111ab9190612061565b60015b611232573d80600081146111de576040519150601f19603f3d011682016040523d82523d6000602084013e6111e3565b606091505b50600081510361122a57836040517f64a0ae920000000000000000000000000000000000000000000000000000000081526004016112219190611aa8565b60405180910390fd5b805160208201fd5b63150b7a0260e01b7bffffffffffffffffffffffffffffffffffffffffffffffffffffffff1916817bffffffffffffffffffffffffffffffffffffffffffffffffffffffff1916146112bb57836040517f64a0ae920000000000000000000000000000000000000000000000000000000081526004016112b29190611aa8565b60405180910390fd5b505b5050505050565b606060405180602001604052806000815250905090565b6060600060016112ea8461166f565b01905060008167ffffffffffffffff81111561130957611308611c4f565b5b6040519080825280601f01601f19166020018201604052801561133b5781602001600182028036833780820191505090505b509050600082602083010190505b60011561139e578080600190039150507f3031323334353637383961626364656600000000000000000000000000000000600a86061a8153600a85816113925761139161208e565b5b04945060008503611349575b819350505050919050565b60006002600083815260200190815260200160002060009054906101000a900473ffffffffffffffffffffffffffffffffffffffff169050919050565b808061141f5750600073ffffffffffffffffffffffffffffffffffffffff168273ffffffffffffffffffffffffffffffffffffffff1614155b1561155357600061142f84610a65565b9050600073ffffffffffffffffffffffffffffffffffffffff168373ffffffffffffffffffffffffffffffffffffffff161415801561149a57508273ffffffffffffffffffffffffffffffffffffffff168173ffffffffffffffffffffffffffffffffffffffff1614155b80156114ad57506114ab81846108e1565b155b156114ef57826040517fa9fbf51f0000000000000000000000000000000000000000000000000000000081526004016114e69190611aa8565b60405180910390fd5b811561155157838573ffffffffffffffffffffffffffffffffffffffff168273ffffffffffffffffffffffffffffffffffffffff167f8c5be1e5ebec7d5bd14f71427d1e84f3dd0314c0f7b2291e5b200ac8c7c3b92560405160405180910390a45b505b836004600085815260200190815260200160002060006101000a81548173ffffffffffffffffffffffffffffffffffffffff021916908373ffffffffffffffffffffffffffffffffffffffff16021790555050505050565b6115b68383836117c2565b61166a57600073ffffffffffffffffffffffffffffffffffffffff168373ffffffffffffffffffffffffffffffffffffffff160361162b57806040517f7e2732890000000000000000000000000000000000000000000000000000000081526004016116229190611bbe565b60405180910390fd5b81816040517f177e802f0000000000000000000000000000000000000000000000000000000081526004016116619291906120bd565b60405180910390fd5b505050565b600080600090507a184f03e93ff9f4daa797ed6e38ed64bf6a1f01000000000000000083106116cd577a184f03e93ff9f4daa797ed6e38ed64bf6a1f01000000000000000083816116c3576116c261208e565b5b0492506040810190505b6d04ee2d6d415b85acef8100000000831061170a576d04ee2d6d415b85acef81000000008381611700576116ff61208e565b5b0492506020810190505b662386f26fc10000831061173957662386f26fc10000838161172f5761172e61208e565b5b0492506010810190505b6305f5e1008310611762576305f5e10083816117585761175761208e565b5b0492506008810190505b612710831061178757612710838161177d5761177c61208e565b5b0492506004810190505b606483106117aa57606483816117a05761179f61208e565b5b0492506002810190505b600a83106117b9576001810190505b80915050919050565b60008073ffffffffffffffffffffffffffffffffffffffff168373ffffffffffffffffffffffffffffffffffffffff161415801561187a57508273ffffffffffffffffffffffffffffffffffffffff168473ffffffffffffffffffffffffffffffffffffffff16148061183b575061183a84846108e1565b5b8061187957508273ffffffffffffffffffffffffffffffffffffffff1661186183610aed565b73ffffffffffffffffffffffffffffffffffffffff16145b5b90509392505050565b6000604051905090565b600080fd5b600080fd5b60007fffffffff0000000000000000000000000000000000000000000000000000000082169050919050565b6118cc81611897565b81146118d757600080fd5b50565b6000813590506118e9816118c3565b92915050565b6000602082840312156119055761190461188d565b5b6000611913848285016118da565b91505092915050565b60008115159050919050565b6119318161191c565b82525050565b600060208201905061194c6000830184611928565b92915050565b600081519050919050565b600082825260208201905092915050565b60005b8381101561198c578082015181840152602081019050611971565b60008484015250505050565b6000601f19601f8301169050919050565b60006119b482611952565b6119be818561195d565b93506119ce81856020860161196e565b6119d781611998565b840191505092915050565b600060208201905081810360008301526119fc81846119a9565b905092915050565b6000819050919050565b611a1781611a04565b8114611a2257600080fd5b50565b600081359050611a3481611a0e565b92915050565b600060208284031215611a5057611a4f61188d565b5b6000611a5e84828501611a25565b91505092915050565b600073ffffffffffffffffffffffffffffffffffffffff82169050919050565b6000611a9282611a67565b9050919050565b611aa281611a87565b82525050565b6000602082019050611abd6000830184611a99565b92915050565b611acc81611a87565b8114611ad757600080fd5b50565b600081359050611ae981611ac3565b92915050565b60008060408385031215611b0657611b0561188d565b5b6000611b1485828601611ada565b9250506020611b2585828601611a25565b9150509250929050565b600080600060608486031215611b4857611b4761188d565b5b6000611b5686828701611ada565b9350506020611b6786828701611ada565b9250506040611b7886828701611a25565b9150509250925092565b600060208284031215611b9857611b9761188d565b5b6000611ba684828501611ada565b91505092915050565b611bb881611a04565b82525050565b6000602082019050611bd36000830184611baf565b92915050565b611be28161191c565b8114611bed57600080fd5b50565b600081359050611bff81611bd9565b92915050565b60008060408385031215611c1c57611c1b61188d565b5b6000611c2a85828601611ada565b9250506020611c3b85828601611bf0565b9150509250929050565b600080fd5b600080fd5b7f4e487b7100000000000000000000000000000000000000000000000000000000600052604160045260246000fd5b611c8782611998565b810181811067ffffffffffffffff82111715611ca657611ca5611c4f565b5b80604052505050565b6000611cb9611883565b9050611cc58282611c7e565b919050565b600067ffffffffffffffff821115611ce557611ce4611c4f565b5b611cee82611998565b9050602081019050919050565b82818337600083830152505050565b6000611d1d611d1884611cca565b611caf565b905082815260208101848484011115611d3957611d38611c4a565b5b611d44848285611cfb565b509392505050565b600082601f830112611d6157611d60611c45565b5b8135611d71848260208601611d0a565b91505092915050565b60008060008060808587031215611d9457611d9361188d565b5b6000611da287828801611ada565b9450506020611db387828801611ada565b9350506040611dc487828801611a25565b925050606085013567ffffffffffffffff811115611de557611de4611892565b5b611df187828801611d4c565b91505092959194509250565b60008060408385031215611e1457611e1361188d565b5b6000611e2285828601611ada565b9250506020611e3385828601611ada565b9150509250929050565b7f4e487b7100000000000000000000000000000000000000000000000000000000600052602260045260246000fd5b60006002820490506001821680611e8457607f821691505b602082108103611e9757611e96611e3d565b5b50919050565b6000606082019050611eb26000830186611a99565b611ebf6020830185611baf565b611ecc6040830184611a99565b949350505050565b7f4e487b7100000000000000000000000000000000000000000000000000000000600052601160045260246000fd5b6000611f0e82611a04565b91507fffffffffffffffffffffffffffffffffffffffffffffffffffffffffffffffff8203611f4057611f3f611ed4565b5b600182019050919050565b600081905092915050565b6000611f6182611952565b611f6b8185611f4b565b9350611f7b81856020860161196e565b80840191505092915050565b6000611f938285611f56565b9150611f9f8284611f56565b91508190509392505050565b600081519050919050565b600082825260208201905092915050565b6000611fd282611fab565b611fdc8185611fb6565b9350611fec81856020860161196e565b611ff581611998565b840191505092915050565b60006080820190506120156000830187611a99565b6120226020830186611a99565b61202f6040830185611baf565b81810360608301526120418184611fc7565b905095945050505050565b60008151905061205b816118c3565b92915050565b6000602082840312156120775761207661188d565b5b60006120858482850161204c565b91505092915050565b7f4e487b7100000000000000000000000000000000000000000000000000000000600052601260045260246000fd5b60006040820190506120d26000830185611a99565b6120df6020830184611baf565b939250505056fea2646970667358221220503863955212bca777980bd51c0ab37f18158c979661f55e43df244e225db6a564736f6c63430008140033",
  "linkReferences": {},
  "deployedLinkReferences": {}
}