{
  "_format": "hh-sol-artifact-1",
  "contractName": "BattlePetNFT",
  "sourceName": "contracts/BattlePetNFT.sol",
  "abi": [
    {
      "inputs": [],
      "stateMutability": "nonpayable",
      "type": "constructor"
    },
    {
      "inputs": [
        {
          "internalType": "address",
          "name": "sender",
          "type": "address"
        },
        {
          "internalType": "uint256",
          "name": "tokenId",
          "type": "uint256"
        },
        {
          "internalType": "address",
          "name": "owner",
          "type": "address"
        }
      ],
      "name": "ERC721IncorrectOwner",
      "type": "error"
    },
    {
      "inputs": [
        {
          "internalType": "address",
          "name": "operator",
          "type": "address"
        },
        {
          "internalType": "uint256",
          "name": "tokenId",
          "type": "uint256"
        }
      ],
      "name": "ERC721InsufficientApproval",
      "type": "error"
    },
    {
      "inputs": [
        {
          "internalType": "address",
          "name": "approver",
          "type": "address"
        }
      ],
      "name": "ERC721InvalidApprover",
      "type": "error"
    },
    {
      "inputs": [
        {
          "internalType": "address",
          "name": "operator",
          "type": "address"
        }
      ],
      "name": "ERC721InvalidOperator",
      "type": "error"
    },
    {
      "inputs": [
        {
          "internalType": "address",
          "name": "owner",
          "type": "address"
        }
      ],
      "name": "ERC721InvalidOwner",
      "type": "error"
    },
    {
      "inputs": [
        {
          "internalType": "address",
          "name": "receiver",
          "type": "address"
        }
      ],
      "name": "ERC721InvalidReceiver",
      "type": "error"
    },
    {
      "inputs": [
        {
          "internalType": "address",
          "name": "sender",
          "type": "address"
        }
      ],
      "name": "ERC721InvalidSender",
      "type": "error"
    },
    {
      "inputs": [
        {
          "internalType": "uint256",
          "name": "tokenId",
          "type": "uint256"
        }
      ],
      "name": "ERC721NonexistentToken",
      "type": "error"
    },
    {
      "inputs": [
        {
          "internalType": "address",
          "name": "owner",
          "type": "address"
        }
      ],
      "name": "OwnableInvalidOwner",
      "type": "error"
    },
    {
      "inputs": [
        {
          "internalType": "address",
          "name": "account",
          "type": "address"
        }
      ],
      "name": "OwnableUnauthorizedAccount",
      "type": "error"
    },
    {
      "anonymous": false,
      "inputs": [
        {
          "indexed": true,
          "internalType": "address",
          "name": "owner",
          "type": "address"
        },
        {
          "indexed": true,
          "internalType": "address",
          "name": "approved",
          "type": "address"
        },
        {
          "indexed": true,
          "internalType": "uint256",
          "name": "tokenId",
          "type": "uint256"
        }
      ],
      "name": "Approval",
      "type": "event"
    },
    {
      "anonymous": false,
      "inputs": [
        {
          "indexed": true,
          "internalType": "address",
          "name": "owner",
          "type": "address"
        },
        {
          "indexed": true,
          "internalType": "address",
          "name": "operator",
          "type": "address"
        },
        {
          "indexed": false,
          "internalType": "bool",
          "name": "approved",
          "type": "bool"
        }
      ],
      "name": "ApprovalForAll",
      "type": "event"
    },
    {
      "anonymous": false,
      "inputs": [
        {
          "indexed": true,
          "internalType": "address",
          "name": "previousOwner",
          "type": "address"
        },
        {
          "indexed": true,
          "internalType": "address",
          "name": "newOwner",
          "type": "address"
        }
      ],
      "name": "OwnershipTransferred",
      "type": "event"
    },
    {
      "anonymous": false,
      "inputs": [
        {
          "indexed": true,
          "internalType": "address",
          "name": "from",
          "type": "address"
        },
        {
          "indexed": true,
          "internalType": "address",
          "name": "to",
          "type": "address"
        },
        {
          "indexed": true,
          "internalType": "uint256",
          "name": "tokenId",
          "type": "uint256"
        }
      ],
      "name": "Transfer",
      "type": "event"
    },
    {
      "inputs": [],
      "name": "_nextTokenId",
      "outputs": [
        {
          "internalType": "uint256",
          "name": "",
          "type": "uint256"
        }
      ],
      "stateMutability": "view",
      "type": "function"
    },
    {
      "inputs": [
        {
          "internalType": "address",
          "name": "to",
          "type": "address"
        },
        {
          "internalType": "uint256",
          "name": "tokenId",
          "type": "uint256"
        }
      ],
      "name": "approve",
      "outputs": [],
      "stateMutability": "nonpayable",
      "type": "function"
    },
    {
      "inputs": [
        {
          "internalType": "address",
          "name": "spender",
          "type": "address"
        },
        {
          "internalType": "uint256",
          "name": "tokenId",
          "type": "uint256"
        }
      ],
      "name": "approveForMarket",
      "outputs": [],
      "stateMutability": "nonpayable",
      "type": "function"
    },
    {
      "inputs": [
        {
          "internalType": "address",
          "name": "owner",
          "type": "address"
        }
      ],
      "name": "balanceOf",
      "outputs": [
        {
          "internalType": "uint256",
          "name": "",
          "type": "uint256"
        }
      ],
      "stateMutability": "view",
      "type": "function"
    },
    {
      "inputs": [
        {
          "internalType": "uint256",
          "name": "tokenId",
          "type": "uint256"
        }
      ],
      "name": "getApproved",
      "outputs": [
        {
          "internalType": "address",
          "name": "",
          "type": "address"
        }
      ],
      "stateMutability": "view",
      "type": "function"
    },
    {
      "inputs": [
        {
          "internalType": "address",
          "name": "owner",
          "type": "address"
        },
        {
          "internalType": "address",
          "name": "operator",
          "type": "address"
        }
      ],
      "name": "isApprovedForAll",
      "outputs": [
        {
          "internalType": "bool",
          "name": "",
          "type": "bool"
        }
      ],
      "stateMutability": "view",
      "type": "function"
    },
    {
      "inputs": [
        {
          "internalType": "address",
          "name": "to",
          "type": "address"
        }
      ],
      "name": "mint",
      "outputs": [
        {
          "internalType": "uint256",
          "name": "",
          "type": "uint256"
        }
      ],
      "stateMutability": "nonpayable",
      "type": "function"
    },
    {
      "inputs": [],
      "name": "name",
      "outputs": [
        {
          "internalType": "string",
          "name": "",
          "type": "string"
        }
      ],
      "stateMutability": "view",
      "type": "function"
    },
    {
      "inputs": [],
      "name": "owner",
      "outputs": [
        {
          "internalType": "address",
          "name": "",
          "type": "address"
        }
      ],
      "stateMutability": "view",
      "type": "function"
    },
    {
      "inputs": [
        {
          "internalType": "uint256",
          "name": "tokenId",
          "type": "uint256"
        }
      ],
      "name": "ownerOf",
      "outputs": [
        {
          "internalType": "address",
          "name": "",
          "type": "address"
        }
      ],
      "stateMutability": "view",
      "type": "function"
    },
    {
      "inputs": [],
      "name": "renounceOwnership",
      "outputs": [],
      "stateMutability": "nonpayable",
      "type": "function"
    },
    {
      "inputs": [
        {
          "internalType": "address",
          "name": "from",
          "type": "address"
        },
        {
          "internalType": "address",
          "name": "to",
          "type": "address"
        },
        {
          "internalType": "uint256",
          "name": "tokenId",
          "type": "uint256"
        }
      ],
      "name": "safeTransferFrom",
      "outputs": [],
      "stateMutability": "nonpayable",
      "type": "function"
    },
    {
      "inputs": [
        {
          "internalType": "address",
          "name": "from",
          "type": "address"
        },
        {
          "internalType": "address",
          "name": "to",
          "type": "address"
        },
        {
          "internalType": "uint256",
          "name": "tokenId",
          "type": "uint256"
        },
        {
          "internalType": "bytes",
          "name": "data",
          "type": "bytes"
        }
      ],
      "name": "safeTransferFrom",
      "outputs": [],
      "stateMutability": "nonpayable",
      "type": "function"
    },
    {
      "inputs": [
        {
          "internalType": "address",
          "name": "operator",
          "type": "address"
        },
        {
          "internalType": "bool",
          "name": "approved",
          "type": "bool"
        }
      ],
      "name": "setApprovalForAll",
      "outputs": [],
      "stateMutability": "nonpayable",
      "type": "function"
    },
    {
      "inputs": [
        {
          "internalType": "bytes4",
          "name": "interfaceId",
          "type": "bytes4"
        }
      ],
      "name": "supportsInterface",
      "outputs": [
        {
          "internalType": "bool",
          "name": "",
          "type": "bool"
        }
      ],
      "stateMutability": "view",
      "type": "function"
    },
    {
      "inputs": [],
      "name": "symbol",
      "outputs": [
        {
          "internalType": "string",
          "name": "",
          "type": "string"
        }
      ],
      "stateMutability": "view",
      "type": "function"
    },
    {
      "inputs": [
        {
          "internalType": "uint256",
          "name": "tokenId",
          "type": "uint256"
        }
      ],
      "name": "tokenURI",
      "outputs": [
        {
          "internalType": "string",
          "name": "",
          "type": "string"
        }
      ],
      "stateMutability": "view",
      "type": "function"
    },
    {
      "inputs": [
        {
          "internalType": "address",
          "name": "from",
          "type": "address"
        },
        {
          "internalType": "address",
          "name": "to",
          "type": "address"
        },
        {
          "internalType": "uint256",
          "name": "tokenId",
          "type": "uint256"
        }
      ],
      "name": "transferFrom",
      "outputs": [],
      "stateMutability": "nonpayable",
      "type": "function"
    },
    {
      "inputs": [
        {
          "internalType": "address",
          "name": "newOwner",
          "type": "address"
        }
      ],
      "name": "transferOwnership",
      "outputs": [],
      "stateMutability": "nonpayable",
      "type": "function"
    }
  ],
  "bytecode": "0x60806040523480156200001157600080fd5b50336040518060400160405280600981526020017f426174746c6550657400000000000000000000000000000000000000000000008152506040518060400160405280600481526020017f4250455400000000000000000000000000000000000000000000000000000000815250816000908162000090919062000472565b508060019081620000a2919062000472565b505050600073ffffffffffffffffffffffffffffffffffffffff168173ffffffffffffffffffffffffffffffffffffffff16036200011a5760006040517f1e4fbdf70000000000000000000000000000000000000000000000000000000081526004016200011191906200059e565b60405180910390fd5b6200012b816200013260201b60201c565b50620005bb565b6000600660009054906101000a900473ffffffffffffffffffffffffffffffffffffffff16905081600660006101000a81548173ffffffffffffffffffffffffffffffffffffffff021916908373ffffffffffffffffffffffffffffffffffffffff1602179055508173ffffffffffffffffffffffffffffffffffffffff168173ffffffffffffffffffffffffffffffffffffffff167f8be0079c531659141344cd1fd0a4f28419497f9722a3daafe3b4186f6b6457e060405160405180910390a35050565b600081519050919050565b7f4e487b7100000000000000000000000000000000000000000000000000000000600052604160045260246000fd5b7f4e487b7100000000000000000000000000000000000000000000000000000000600052602260045260246000fd5b600060028204905060018216806200027a57607f821691505b60208210810362000290576200028f62000232565b5b50919050565b60008190508160005260206000209050919050565b60006020601f8301049050919050565b600082821b905092915050565b600060088302620002fa7fffffffffffffffffffffffffffffffffffffffffffffffffffffffffffffffff82620002bb565b620003068683620002bb565b95508019841693508086168417925050509392505050565b6000819050919050565b6000819050919050565b6000620003536200034d62000347846200031e565b62000328565b6200031e565b9050919050565b6000819050919050565b6200036f8362000332565b620003876200037e826200035a565b848454620002c8565b825550505050565b600090565b6200039e6200038f565b620003ab81848462000364565b505050565b5b81811015620003d357620003c760008262000394565b600181019050620003b1565b5050565b601f8211156200042257620003ec8162000296565b620003f784620002ab565b8101602085101562000407578190505b6200041f6200041685620002ab565b830182620003b0565b50505b505050565b600082821c905092915050565b6000620004476000198460080262000427565b1980831691505092915050565b600062000462838362000434565b9150826002028217905092915050565b6200047d82620001f8565b67ffffffffffffffff81111562000499576200049862000203565b5b620004a5825462000261565b620004b2828285620003d7565b600060209050601f831160018114620004ea5760008415620004d5578287015190505b620004e1858262000454565b86555062000551565b601f198416620004fa8662000296565b60005b828110156200052457848901518255600182019150602085019450602081019050620004fd565b8683101562000544578489015162000540601f89168262000434565b8355505b6001600288020188555050505b505050505050565b600073ffffffffffffffffffffffffffffffffffffffff82169050919050565b6000620005868262000559565b9050919050565b620005988162000579565b82525050565b6000602082019050620005b560008301846200058d565b92915050565b61214280620005cb6000396000f3fe608060405234801561001057600080fd5b50600436106101215760003560e01c806370a08231116100ad578063b88d4fde11610071578063b88d4fde14610308578063c87b56dd14610324578063de991a0a14610354578063e985e9c514610370578063f2fde38b146103a057610121565b806370a0823114610276578063715018a6146102a65780638da5cb5b146102b057806395d89b41146102ce578063a22cb465146102ec57610121565b806323b872dd116100f457806323b872dd146101c057806342842e0e146101dc5780634a60f620146101f85780636352211e146102165780636a6278421461024657610121565b806301ffc9a71461012657806306fdde0314610156578063081812fc14610174578063095ea7b3146101a4575b600080fd5b610140600480360381019061013b9190611915565b6103bc565b60405161014d919061195d565b60405180910390f35b61015e61049e565b60405161016b9190611a08565b60405180910390f35b61018e60048036038101906101899190611a60565b610530565b60405161019b9190611ace565b60405180910390f35b6101be60048036038101906101b99190611b15565b61054c565b005b6101da60048036038101906101d59190611b55565b610562565b005b6101f660048036038101906101f19190611b55565b610664565b005b610200610684565b60405161020d9190611bb7565b60405180910390f35b610230600480360381019061022b9190611a60565b61068a565b60405161023d9190611ace565b60405180910390f35b610260600480360381019061025b9190611bd2565b61069c565b60405161026d9190611bb7565b60405180910390f35b610290600480360381019061028b9190611bd2565b6106cb565b60405161029d9190611bb7565b60405180910390f35b6102ae610785565b005b6102b8610799565b6040516102c59190611ace565b60405180910390f35b6102d66107c3565b6040516102e39190611a08565b60405180910390f35b61030660048036038101906103019190611c2b565b610855565b005b610322600480360381019061031d9190611da0565b61086b565b005b61033e60048036038101906103399190611a60565b610890565b60405161034b9190611a08565b60405180910390f35b61036e60048036038101906103699190611b15565b6108f9565b005b61038a60048036038101906103859190611e23565b610907565b604051610397919061195d565b60405180910390f35b6103ba60048036038101906103b59190611bd2565b61099b565b005b60007f80ac58cd000000000000000000000000000000000000000000000000000000007bffffffffffffffffffffffffffffffffffffffffffffffffffffffff1916827bffffffffffffffffffffffffffffffffffffffffffffffffffffffff1916148061048757507f5b5e139f000000000000000000000000000000000000000000000000000000007bffffffffffffffffffffffffffffffffffffffffffffffffffffffff1916827bffffffffffffffffffffffffffffffffffffffffffffffffffffffff1916145b80610497575061049682610a21565b5b9050919050565b6060600080546104ad90611e92565b80601f01602080910402602001604051908101604052809291908181526020018280546104d990611e92565b80156105265780601f106104fb57610100808354040283529160200191610526565b820191906000526020600020905b81548152906001019060200180831161050957829003601f168201915b5050505050905090565b600061053b82610a8b565b5061054582610b13565b9050919050565b61055e8282610559610b50565b610b58565b5050565b600073ffffffffffffffffffffffffffffffffffffffff168273ffffffffffffffffffffffffffffffffffffffff16036105d45760006040517f64a0ae920000000000000000000000000000000000000000000000000000000081526004016105cb9190611ace565b60405180910390fd5b60006105e883836105e3610b50565b610b6a565b90508373ffffffffffffffffffffffffffffffffffffffff168173ffffffffffffffffffffffffffffffffffffffff161461065e578382826040517f64283d7b00000000000000000000000000000000000000000000000000000000815260040161065593929190611ec3565b60405180910390fd5b50505050565b61067f8383836040518060200160405280600081525061086b565b505050565b60075481565b600061069582610a8b565b9050919050565b600080600760008154809291906106b290611f29565b9190505590506106c28382610d84565b80915050919050565b60008073ffffffffffffffffffffffffffffffffffffffff168273ffffffffffffffffffffffffffffffffffffffff160361073e5760006040517f89c62b640000000000000000000000000000000000000000000000000000000081526004016107359190611ace565b60405180910390fd5b600360008373ffffffffffffffffffffffffffffffffffffffff1673ffffffffffffffffffffffffffffffffffffffff168152602001908152602001600020549050919050565b61078d610e7d565b6107976000610f04565b565b6000600660009054906101000a900473ffffffffffffffffffffffffffffffffffffffff16905090565b6060600180546107d290611e92565b80601f01602080910402602001604051908101604052809291908181526020018280546107fe90611e92565b801561084b5780601f106108205761010080835404028352916020019161084b565b820191906000526020600020905b81548152906001019060200180831161082e57829003601f168201915b5050505050905090565b610867610860610b50565b8383610fca565b5050565b610876848484610562565b61088a610881610b50565b85858585611139565b50505050565b606061089b82610a8b565b5060006108a66112ea565b905060008151116108c657604051806020016040528060008152506108f1565b806108d084611301565b6040516020016108e1929190611fad565b6040516020818303038152906040525b915050919050565b610903828261054c565b5050565b6000600560008473ffffffffffffffffffffffffffffffffffffffff1673ffffffffffffffffffffffffffffffffffffffff16815260200190815260200160002060008373ffffffffffffffffffffffffffffffffffffffff1673ffffffffffffffffffffffffffffffffffffffff16815260200190815260200160002060009054906101000a900460ff16905092915050565b6109a3610e7d565b600073ffffffffffffffffffffffffffffffffffffffff168173ffffffffffffffffffffffffffffffffffffffff1603610a155760006040517f1e4fbdf7000000000000000000000000000000000000000000000000000000008152600401610a0c9190611ace565b60405180910390fd5b610a1e81610f04565b50565b60007f01ffc9a7000000000000000000000000000000000000000000000000000000007bffffffffffffffffffffffffffffffffffffffffffffffffffffffff1916827bffffffffffffffffffffffffffffffffffffffffffffffffffffffff1916149050919050565b600080610a97836113cf565b9050600073ffffffffffffffffffffffffffffffffffffffff168173ffffffffffffffffffffffffffffffffffffffff1603610b0a57826040517f7e273289000000000000000000000000000000000000000000000000000000008152600401610b019190611bb7565b60405180910390fd5b80915050919050565b60006004600083815260200190815260200160002060009054906101000a900473ffffffffffffffffffffffffffffffffffffffff169050919050565b600033905090565b610b65838383600161140c565b505050565b600080610b76846113cf565b9050600073ffffffffffffffffffffffffffffffffffffffff168373ffffffffffffffffffffffffffffffffffffffff1614610bb857610bb78184866115d1565b5b600073ffffffffffffffffffffffffffffffffffffffff168173ffffffffffffffffffffffffffffffffffffffff1614610c4957610bfa60008560008061140c565b6001600360008373ffffffffffffffffffffffffffffffffffffffff1673ffffffffffffffffffffffffffffffffffffffff168152602001908152602001600020600082825403925050819055505b600073ffffffffffffffffffffffffffffffffffffffff168573ffffffffffffffffffffffffffffffffffffffff1614610ccc576001600360008773ffffffffffffffffffffffffffffffffffffffff1673ffffffffffffffffffffffffffffffffffffffff168152602001908152602001600020600082825401925050819055505b846002600086815260200190815260200160002060006101000a81548173ffffffffffffffffffffffffffffffffffffffff021916908373ffffffffffffffffffffffffffffffffffffffff160217905550838573ffffffffffffffffffffffffffffffffffffffff168273ffffffffffffffffffffffffffffffffffffffff167fddf252ad1be2c89b69c2b068fc378daa952ba7f163c4a11628f55a4df523b3ef60405160405180910390a4809150509392505050565b600073ffffffffffffffffffffffffffffffffffffffff168273ffffffffffffffffffffffffffffffffffffffff1603610df65760006040517f64a0ae92000000000000000000000000000000000000000000000000000000008152600401610ded9190611ace565b60405180910390fd5b6000610e0483836000610b6a565b9050600073ffffffffffffffffffffffffffffffffffffffff168173ffffffffffffffffffffffffffffffffffffffff1614610e785760006040517f73c6ac6e000000000000000000000000000000000000000000000000000000008152600401610e6f9190611ace565b60405180910390fd5b505050565b610e85610b50565b73ffffffffffffffffffffffffffffffffffffffff16610ea3610799565b73ffffffffffffffffffffffffffffffffffffffff1614610f0257610ec6610b50565b6040517f118cdaa7000000000000000000000000000000000000000000000000000000008152600401610ef99190611ace565b60405180910390fd5b565b6000600660009054906101000a900473ffffffffffffffffffffffffffffffffffffffff16905081600660006101000a81548173ffffffffffffffffffffffffffffffffffffffff021916908373ffffffffffffffffffffffffffffffffffffffff1602179055508173ffffffffffffffffffffffffffffffffffffffff168173ffffffffffffffffffffffffffffffffffffffff167f8be0079c531659141344cd1fd0a4f28419497f9722a3daafe3b4186f6b6457e060405160405180910390a35050565b600073ffffffffffffffffffffffffffffffffffffffff168273ffffffffffffffffffffffffffffffffffffffff160361103b57816040517f5b08ba180000000000000000000000000000000000000000000000000000000081526004016110329190611ace565b60405180910390fd5b80600560008573ffffffffffffffffffffffffffffffffffffffff1673ffffffffffffffffffffffffffffffffffffffff16815260200190815260200160002060008473ffffffffffffffffffffffffffffffffffffffff1673ffffffffffffffffffffffffffffffffffffffff16815260200190815260200160002060006101000a81548160ff0219169083151502179055508173ffffffffffffffffffffffffffffffffffffffff168373ffffffffffffffffffffffffffffffffffffffff167f17307eab39ab6107e8899845ad3d59bd9653f200f220920489ca2b5937696c318360405161112c919061195d565b60405180910390a3505050565b60008373ffffffffffffffffffffffffffffffffffffffff163b11156112e3578273ffffffffffffffffffffffffffffffffffffffff1663150b7a02868685856040518563ffffffff1660e01b81526004016111989493929190612026565b6020604051808303816000875af19250505080156111d457506040513d601f19601f820116820180604052508101906111d19190612087565b60015b611258573d8060008114611204576040519150601f19603f3d011682016040523d82523d6000602084013e611209565b606091505b50600081510361125057836040517f64a0ae920000000000000000000000000000000000000000000000000000000081526004016112479190611ace565b60405180910390fd5b805160208201fd5b63150b7a0260e01b7bffffffffffffffffffffffffffffffffffffffffffffffffffffffff1916817bffffffffffffffffffffffffffffffffffffffffffffffffffffffff1916146112e157836040517f64a0ae920000000000000000000000000000000000000000000000000000000081526004016112d89190611ace565b60405180910390fd5b505b5050505050565b606060405180602001604052806000815250905090565b60606000600161131084611695565b01905060008167ffffffffffffffff81111561132f5761132e611c75565b5b6040519080825280601f01601f1916602001820160405280156113615781602001600182028036833780820191505090505b509050600082602083010190505b6001156113c4578080600190039150507f3031323334353637383961626364656600000000000000000000000000000000600a86061a8153600a85816113b8576113b76120b4565b5b0494506000850361136f575b819350505050919050565b60006002600083815260200190815260200160002060009054906101000a900473ffffffffffffffffffffffffffffffffffffffff169050919050565b80806114455750600073ffffffffffffffffffffffffffffffffffffffff168273ffffffffffffffffffffffffffffffffffffffff1614155b1561157957600061145584610a8b565b9050600073ffffffffffffffffffffffffffffffffffffffff168373ffffffffffffffffffffffffffffffffffffffff16141580156114c057508273ffffffffffffffffffffffffffffffffffffffff168173ffffffffffffffffffffffffffffffffffffffff1614155b80156114d357506114d18184610907565b155b1561151557826040517fa9fbf51f00000000000000000000000000000000000000000000000000000000815260040161150c9190611ace565b60405180910390fd5b811561157757838573ffffffffffffffffffffffffffffffffffffffff168273ffffffffffffffffffffffffffffffffffffffff167f8c5be1e5ebec7d5bd14f71427d1e84f3dd0314c0f7b2291e5b200ac8c7c3b92560405160405180910390a45b505b836004600085815260200190815260200160002060006101000a81548173ffffffffffffffffffffffffffffffffffffffff021916908373ffffffffffffffffffffffffffffffffffffffff16021790555050505050565b6115dc8383836117e8565b61169057600073ffffffffffffffffffffffffffffffffffffffff168373ffffffffffffffffffffffffffffffffffffffff160361165157806040517f7e2732890000000000000000000000000000000000000000000000000000000081526004016116489190611bb7565b60405180910390fd5b81816040517f177e802f0000000000000000000000000000000000000000000000000000000081526004016116879291906120e3565b60405180910390fd5b505050565b600080600090507a184f03e93ff9f4daa797ed6e38ed64bf6a1f01000000000000000083106116f3577a184f03e93ff9f4daa797ed6e38ed64bf6a1f01000000000000000083816116e9576116e86120b4565b5b0492506040810190505b6d04ee2d6d415b85acef81000000008310611730576d04ee2d6d415b85acef81000000008381611726576117256120b4565b5b0492506020810190505b662386f26fc10000831061175f57662386f26fc100008381611755576117546120b4565b5b0492506010810190505b6305f5e1008310611788576305f5e100838161177e5761177d6120b4565b5b0492506008810190505b61271083106117ad5761271083816117a3576117a26120b4565b5b0492506004810190505b606483106117d057606483816117c6576117c56120b4565b5b0492506002810190505b600a83106117df576001810190505b80915050919050565b60008073ffffffffffffffffffffffffffffffffffffffff168373ffffffffffffffffffffffffffffffffffffffff16141580156118a057508273ffffffffffffffffffffffffffffffffffffffff168473ffffffffffffffffffffffffffffffffffffffff16148061186157506118608484610907565b5b8061189f57508273ffffffffffffffffffffffffffffffffffffffff1661188783610b13565b73ffffffffffffffffffffffffffffffffffffffff16145b5b90509392505050565b6000604051905090565b600080fd5b600080fd5b60007fffffffff0000000000000000000000000000000000000000000000000000000082169050919050565b6118f2816118bd565b81146118fd57600080fd5b50565b60008135905061190f816118e9565b92915050565b60006020828403121561192b5761192a6118b3565b5b600061193984828501611900565b91505092915050565b60008115159050919050565b61195781611942565b82525050565b6000602082019050611972600083018461194e565b92915050565b600081519050919050565b600082825260208201905092915050565b60005b838110156119b2578082015181840152602081019050611997565b60008484015250505050565b6000601f19601f8301169050919050565b60006119da82611978565b6119e48185611983565b93506119f4818560208601611994565b6119fd816119be565b840191505092915050565b60006020820190508181036000830152611a2281846119cf565b905092915050565b6000819050919050565b611a3d81611a2a565b8114611a4857600080fd5b50565b600081359050611a5a81611a34565b92915050565b600060208284031215611a7657611a756118b3565b5b6000611a8484828501611a4b565b91505092915050565b600073ffffffffffffffffffffffffffffffffffffffff82169050919050565b6000611ab882611a8d565b9050919050565b611ac881611aad565b82525050565b6000602082019050611ae36000830184611abf565b92915050565b611af281611aad565b8114611afd57600080fd5b50565b600081359050611b0f81611ae9565b92915050565b60008060408385031215611b2c57611b2b6118b3565b5b6000611b3a85828601611b00565b9250506020611b4b85828601611a4b565b9150509250929050565b600080600060608486031215611b6e57611b6d6118b3565b5b6000611b7c86828701611b00565b9350506020611b8d86828701611b00565b9250506040611b9e86828701611a4b565b9150509250925092565b611bb181611a2a565b82525050565b6000602082019050611bcc6000830184611ba8565b92915050565b600060208284031215611be857611be76118b3565b5b6000611bf684828501611b00565b91505092915050565b611c0881611942565b8114611c1357600080fd5b50565b600081359050611c2581611bff565b92915050565b60008060408385031215611c4257611c416118b3565b5b6000611c5085828601611b00565b9250506020611c6185828601611c16565b9150509250929050565b600080fd5b600080fd5b7f4e487b7100000000000000000000000000000000000000000000000000000000600052604160045260246000fd5b611cad826119be565b810181811067ffffffffffffffff82111715611ccc57611ccb611c75565b5b80604052505050565b6000611cdf6118a9565b9050611ceb8282611ca4565b919050565b600067ffffffffffffffff821115611d0b57611d0a611c75565b5b611d14826119be565b9050602081019050919050565b82818337600083830152505050565b6000611d43611d3e84611cf0565b611cd5565b905082815260208101848484011115611d5f57611d5e611c70565b5b611d6a848285611d21565b509392505050565b600082601f830112611d8757611d86611c6b565b5b8135611d97848260208601611d30565b91505092915050565b60008060008060808587031215611dba57611db96118b3565b5b6000611dc887828801611b00565b9450506020611dd987828801611b00565b9350506040611dea87828801611a4b565b925050606085013567ffffffffffffffff811115611e0b57611e0a6118b8565b5b611e1787828801611d72565b91505092959194509250565b60008060408385031215611e3a57611e396118b3565b5b6000611e4885828601611b00565b9250506020611e5985828601611b00565b9150509250929050565b7f4e487b7100000000000000000000000000000000000000000000000000000000600052602260045260246000fd5b60006002820490506001821680611eaa57607f821691505b602082108103611ebd57611ebc611e63565b5b50919050565b6000606082019050611ed86000830186611abf565b611ee56020830185611ba8565b611ef26040830184611abf565b949350505050565b7f4e487b7100000000000000000000000000000000000000000000000000000000600052601160045260246000fd5b6000611f3482611a2a565b91507fffffffffffffffffffffffffffffffffffffffffffffffffffffffffffffffff8203611f6657611f65611efa565b5b600182019050919050565b600081905092915050565b6000611f8782611978565b611f918185611f71565b9350611fa1818560208601611994565b80840191505092915050565b6000611fb98285611f7c565b9150611fc58284611f7c565b91508190509392505050565b600081519050919050565b600082825260208201905092915050565b6000611ff882611fd1565b6120028185611fdc565b9350612012818560208601611994565b61201b816119be565b840191505092915050565b600060808201905061203b6000830187611abf565b6120486020830186611abf565b6120556040830185611ba8565b81810360608301526120678184611fed565b905095945050505050565b600081519050612081816118e9565b92915050565b60006020828403121561209d5761209c6118b3565b5b60006120ab84828501612072565b91505092915050565b7f4e487b7100000000000000000000000000000000000000000000000000000000600052601260045260246000fd5b60006040820190506120f86000830185611abf565b6121056020830184611ba8565b939250505056fea2646970667358221220876c8c7c40a2fc07f3949e681c18e1cd0d36403130e31dac067d4e070c62f7d564736f6c63430008140033",
  "linkReferences": {},
  "deployedLinkReferences": {}
}