{
  "_format": "hh-sol-artifact-1",
  "contractName": "Marketplace",
  "sourceName": "contracts/Marketplace.sol",
  "abi": [
    {
      "inputs": [
        {
          "internalType": "address",
          "name": "_nft",
          "type": "address"
        }
      ],
      "stateMutability": "nonpayable",
      "type": "constructor"
    },
    {
      "inputs": [
        {
          "internalType": "address",
          "name": "owner",
          "type": "address"
        }
      ],
      "name": "OwnableInvalidOwner",
      "type": "error"
    },
    {
      "inputs": [
        {
          "internalType": "address",
          "name": "account",
          "type": "address"
        }
      ],
      "name": "OwnableUnauthorizedAccount",
      "type": "error"
    },
    {
      "anonymous": false,
      "inputs": [
        {
          "indexed": true,
          "internalType": "uint256",
          "name": "tokenId",
          "type": "uint256"
        },
        {
          "indexed": true,
          "internalType": "address",
          "name": "buyer",
          "type": "address"
        },
        {
          "indexed": false,
          "internalType": "uint256",
          "name": "price",
          "type": "uint256"
        }
      ],
      "name": "Bought",
      "type": "event"
    },
    {
      "anonymous": false,
      "inputs": [
        {
          "indexed": true,
          "internalType": "uint256",
          "name": "tokenId",
          "type": "uint256"
        },
        {
          "indexed": false,
          "internalType": "uint256",
          "name": "price",
          "type": "uint256"
        },
        {
          "indexed": false,
          "internalType": "address",
          "name": "seller",
          "type": "address"
        }
      ],
      "name": "Listed",
      "type": "event"
    },
    {
      "anonymous": false,
      "inputs": [
        {
          "indexed": true,
          "internalType": "address",
          "name": "previousOwner",
          "type": "address"
        },
        {
          "indexed": true,
          "internalType": "address",
          "name": "newOwner",
          "type": "address"
        }
      ],
      "name": "OwnershipTransferred",
      "type": "event"
    },
    {
      "anonymous": false,
      "inputs": [
        {
          "indexed": true,
          "internalType": "uint256",
          "name": "tokenId1",
          "type": "uint256"
        },
        {
          "indexed": true,
          "internalType": "uint256",
          "name": "tokenId2",
          "type": "uint256"
        },
        {
          "indexed": true,
          "internalType": "address",
          "name": "from",
          "type": "address"
        },
        {
          "indexed": false,
          "internalType": "address",
          "name": "to",
          "type": "address"
        }
      ],
      "name": "Swapped",
      "type": "event"
    },
    {
      "inputs": [
        {
          "internalType": "uint256",
          "name": "tokenId",
          "type": "uint256"
        }
      ],
      "name": "buyItem",
      "outputs": [],
      "stateMutability": "payable",
      "type": "function"
    },
    {
      "inputs": [
        {
          "internalType": "uint256",
          "name": "tokenId",
          "type": "uint256"
        }
      ],
      "name": "delist",
      "outputs": [],
      "stateMutability": "nonpayable",
      "type": "function"
    },
    {
      "inputs": [
        {
          "internalType": "uint256",
          "name": "tokenId1",
          "type": "uint256"
        },
        {
          "internalType": "uint256",
          "name": "tokenId2",
          "type": "uint256"
        }
      ],
      "name": "directSwap",
      "outputs": [],
      "stateMutability": "nonpayable",
      "type": "function"
    },
    {
      "inputs": [
        {
          "internalType": "uint256",
          "name": "tokenId",
          "type": "uint256"
        },
        {
          "internalType": "uint256",
          "name": "price",
          "type": "uint256"
        }
      ],
      "name": "listForSale",
      "outputs": [],
      "stateMutability": "nonpayable",
      "type": "function"
    },
    {
      "inputs": [
        {
          "internalType": "uint256",
          "name": "",
          "type": "uint256"
        }
      ],
      "name": "listings",
      "outputs": [
        {
          "internalType": "uint256",
          "name": "",
          "type": "uint256"
        }
      ],
      "stateMutability": "view",
      "type": "function"
    },
    {
      "inputs": [],
      "name": "nft",
      "outputs": [
        {
          "internalType": "contract IERC721",
          "name": "",
          "type": "address"
        }
      ],
      "stateMutability": "view",
      "type": "function"
    },
    {
      "inputs": [],
      "name": "owner",
      "outputs": [
        {
          "internalType": "address",
          "name": "",
          "type": "address"
        }
      ],
      "stateMutability": "view",
      "type": "function"
    },
    {
      "inputs": [],
      "name": "renounceOwnership",
      "outputs": [],
      "stateMutability": "nonpayable",
      "type": "function"
    },
    {
      "inputs": [
        {
          "internalType": "uint256",
          "name": "",
          "type": "uint256"
        }
      ],
      "name": "tokenSellers",
      "outputs": [
        {
          "internalType": "address",
          "name": "",
          "type": "address"
        }
      ],
      "stateMutability": "view",
      "type": "function"
    },
    {
      "inputs": [
        {
          "internalType": "address",
          "name": "newOwner",
          "type": "address"
        }
      ],
      "name": "transferOwnership",
      "outputs": [],
      "stateMutability": "nonpayable",
      "type": "function"
    }
  ],
  "bytecode": "0x60a06040523480156200001157600080fd5b506040516200199138038062001991833981810160405281019062000037919062000228565b33600073ffffffffffffffffffffffffffffffffffffffff168173ffffffffffffffffffffffffffffffffffffffff1603620000ad5760006040517f1e4fbdf7000000000000000000000000000000000000000000000000000000008152600401620000a491906200026b565b60405180910390fd5b620000be81620000fa60201b60201c565b508073ffffffffffffffffffffffffffffffffffffffff1660808173ffffffffffffffffffffffffffffffffffffffff16815250505062000288565b60008060009054906101000a900473ffffffffffffffffffffffffffffffffffffffff169050816000806101000a81548173ffffffffffffffffffffffffffffffffffffffff021916908373ffffffffffffffffffffffffffffffffffffffff1602179055508173ffffffffffffffffffffffffffffffffffffffff168173ffffffffffffffffffffffffffffffffffffffff167f8be0079c531659141344cd1fd0a4f28419497f9722a3daafe3b4186f6b6457e060405160405180910390a35050565b600080fd5b600073ffffffffffffffffffffffffffffffffffffffff82169050919050565b6000620001f082620001c3565b9050919050565b6200020281620001e3565b81146200020e57600080fd5b50565b6000815190506200022281620001f7565b92915050565b600060208284031215620002415762000240620001be565b5b6000620002518482850162000211565b91505092915050565b6200026581620001e3565b82525050565b60006020820190506200028260008301846200025a565b92915050565b6080516116ae620002e360003960008181610246015281816102f901528181610457015281816104e6015281816105fe0152818161067601528181610807015281816109d301528181610b610152610cea01526116ae6000f3fe6080604052600436106100915760003560e01c8063964bc33f11610059578063964bc33f14610169578063de74e57b14610192578063e7fb74c7146101cf578063e80d7fec146101eb578063f2fde38b1461021457610091565b80631802bf9a1461009657806331146d57146100bf57806347ccca02146100fc578063715018a6146101275780638da5cb5b1461013e575b600080fd5b3480156100a257600080fd5b506100bd60048036038101906100b89190611033565b61023d565b005b3480156100cb57600080fd5b506100e660048036038101906100e19190611073565b6105c9565b6040516100f391906110e1565b60405180910390f35b34801561010857600080fd5b506101116105fc565b60405161011e919061115b565b60405180910390f35b34801561013357600080fd5b5061013c610620565b005b34801561014a57600080fd5b50610153610634565b60405161016091906110e1565b60405180910390f35b34801561017557600080fd5b50610190600480360381019061018b9190611073565b61065d565b005b34801561019e57600080fd5b506101b960048036038101906101b49190611073565b6108e4565b6040516101c69190611185565b60405180910390f35b6101e960048036038101906101e49190611073565b6108fc565b005b3480156101f757600080fd5b50610212600480360381019061020d9190611033565b610b48565b005b34801561022057600080fd5b5061023b600480360381019061023691906111cc565b610e1f565b005b600033905060007f000000000000000000000000000000000000000000000000000000000000000073ffffffffffffffffffffffffffffffffffffffff16636352211e846040518263ffffffff1660e01b815260040161029d9190611185565b602060405180830381865afa1580156102ba573d6000803e3d6000fd5b505050506040513d601f19601f820116820180604052508101906102de919061120e565b90508173ffffffffffffffffffffffffffffffffffffffff167f000000000000000000000000000000000000000000000000000000000000000073ffffffffffffffffffffffffffffffffffffffff16636352211e866040518263ffffffff1660e01b81526004016103509190611185565b602060405180830381865afa15801561036d573d6000803e3d6000fd5b505050506040513d601f19601f82011682018060405250810190610391919061120e565b73ffffffffffffffffffffffffffffffffffffffff16146103e7576040517f08c379a00000000000000000000000000000000000000000000000000000000081526004016103de90611298565b60405180910390fd5b8073ffffffffffffffffffffffffffffffffffffffff168273ffffffffffffffffffffffffffffffffffffffff1603610455576040517f08c379a000000000000000000000000000000000000000000000000000000000815260040161044c90611304565b60405180910390fd5b7f000000000000000000000000000000000000000000000000000000000000000073ffffffffffffffffffffffffffffffffffffffff166323b872dd8383876040518463ffffffff1660e01b81526004016104b293929190611324565b600060405180830381600087803b1580156104cc57600080fd5b505af11580156104e0573d6000803e3d6000fd5b505050507f000000000000000000000000000000000000000000000000000000000000000073ffffffffffffffffffffffffffffffffffffffff166323b872dd8284866040518463ffffffff1660e01b815260040161054193929190611324565b600060405180830381600087803b15801561055b57600080fd5b505af115801561056f573d6000803e3d6000fd5b505050508173ffffffffffffffffffffffffffffffffffffffff1683857f9cd20ed773bdbb537c6e6ab86e6a1068c4271b9ef6cc9a5e1c08bba87abaa926846040516105bb91906110e1565b60405180910390a450505050565b60026020528060005260406000206000915054906101000a900473ffffffffffffffffffffffffffffffffffffffff1681565b7f000000000000000000000000000000000000000000000000000000000000000081565b610628610ea5565b6106326000610f2c565b565b60008060009054906101000a900473ffffffffffffffffffffffffffffffffffffffff16905090565b3073ffffffffffffffffffffffffffffffffffffffff167f000000000000000000000000000000000000000000000000000000000000000073ffffffffffffffffffffffffffffffffffffffff16636352211e836040518263ffffffff1660e01b81526004016106cd9190611185565b602060405180830381865afa1580156106ea573d6000803e3d6000fd5b505050506040513d601f19601f8201168201806040525081019061070e919061120e565b73ffffffffffffffffffffffffffffffffffffffff1614610764576040517f08c379a000000000000000000000000000000000000000000000000000000000815260040161075b906113a7565b60405180910390fd5b3373ffffffffffffffffffffffffffffffffffffffff166002600083815260200190815260200160002060009054906101000a900473ffffffffffffffffffffffffffffffffffffffff1673ffffffffffffffffffffffffffffffffffffffff1614610805576040517f08c379a00000000000000000000000000000000000000000000000000000000081526004016107fc90611413565b60405180910390fd5b7f000000000000000000000000000000000000000000000000000000000000000073ffffffffffffffffffffffffffffffffffffffff166323b872dd3033846040518463ffffffff1660e01b815260040161086293929190611324565b600060405180830381600087803b15801561087c57600080fd5b505af1158015610890573d6000803e3d6000fd5b5050505060016000828152602001908152602001600020600090556002600082815260200190815260200160002060006101000a81549073ffffffffffffffffffffffffffffffffffffffff021916905550565b60016020528060005260406000206000915090505481565b60006001600083815260200190815260200160002054905060008111610957576040517f08c379a000000000000000000000000000000000000000000000000000000000815260040161094e9061147f565b60405180910390fd5b803414610999576040517f08c379a0000000000000000000000000000000000000000000000000000000008152600401610990906114eb565b60405180910390fd5b60006002600084815260200190815260200160002060009054906101000a900473ffffffffffffffffffffffffffffffffffffffff1690507f000000000000000000000000000000000000000000000000000000000000000073ffffffffffffffffffffffffffffffffffffffff166323b872dd3033866040518463ffffffff1660e01b8152600401610a2e93929190611324565b600060405180830381600087803b158015610a4857600080fd5b505af1158015610a5c573d6000803e3d6000fd5b505050508073ffffffffffffffffffffffffffffffffffffffff166108fc839081150290604051600060405180830381858888f19350505050158015610aa6573d6000803e3d6000fd5b5060016000848152602001908152602001600020600090556002600084815260200190815260200160002060006101000a81549073ffffffffffffffffffffffffffffffffffffffff02191690553373ffffffffffffffffffffffffffffffffffffffff16837fd2728f908c7e0feb83c6278798370fcb86b62f236c9dbf1a3f541096c215904084604051610b3b9190611185565b60405180910390a3505050565b3373ffffffffffffffffffffffffffffffffffffffff167f000000000000000000000000000000000000000000000000000000000000000073ffffffffffffffffffffffffffffffffffffffff16636352211e846040518263ffffffff1660e01b8152600401610bb89190611185565b602060405180830381865afa158015610bd5573d6000803e3d6000fd5b505050506040513d601f19601f82011682018060405250810190610bf9919061120e565b73ffffffffffffffffffffffffffffffffffffffff1614610c4f576040517f08c379a0000000000000000000000000000000000000000000000000000000008152600401610c4690611557565b60405180910390fd5b60008111610c92576040517f08c379a0000000000000000000000000000000000000000000000000000000008152600401610c89906115c3565b60405180910390fd5b6000600160008481526020019081526020016000205414610ce8576040517f08c379a0000000000000000000000000000000000000000000000000000000008152600401610cdf9061162f565b60405180910390fd5b7f000000000000000000000000000000000000000000000000000000000000000073ffffffffffffffffffffffffffffffffffffffff166323b872dd3330856040518463ffffffff1660e01b8152600401610d4593929190611324565b600060405180830381600087803b158015610d5f57600080fd5b505af1158015610d73573d6000803e3d6000fd5b50505050806001600084815260200190815260200160002081905550336002600084815260200190815260200160002060006101000a81548173ffffffffffffffffffffffffffffffffffffffff021916908373ffffffffffffffffffffffffffffffffffffffff160217905550817fb4e5606a376800f822ae7ce93010dddb4ebd38ca6db1bdbc2d0a1de90c9079e48233604051610e1392919061164f565b60405180910390a25050565b610e27610ea5565b600073ffffffffffffffffffffffffffffffffffffffff168173ffffffffffffffffffffffffffffffffffffffff1603610e995760006040517f1e4fbdf7000000000000000000000000000000000000000000000000000000008152600401610e9091906110e1565b60405180910390fd5b610ea281610f2c565b50565b610ead610ff0565b73ffffffffffffffffffffffffffffffffffffffff16610ecb610634565b73ffffffffffffffffffffffffffffffffffffffff1614610f2a57610eee610ff0565b6040517f118cdaa7000000000000000000000000000000000000000000000000000000008152600401610f2191906110e1565b60405180910390fd5b565b60008060009054906101000a900473ffffffffffffffffffffffffffffffffffffffff169050816000806101000a81548173ffffffffffffffffffffffffffffffffffffffff021916908373ffffffffffffffffffffffffffffffffffffffff1602179055508173ffffffffffffffffffffffffffffffffffffffff168173ffffffffffffffffffffffffffffffffffffffff167f8be0079c531659141344cd1fd0a4f28419497f9722a3daafe3b4186f6b6457e060405160405180910390a35050565b600033905090565b600080fd5b6000819050919050565b61101081610ffd565b811461101b57600080fd5b50565b60008135905061102d81611007565b92915050565b6000806040838503121561104a57611049610ff8565b5b60006110588582860161101e565b92505060206110698582860161101e565b9150509250929050565b60006020828403121561108957611088610ff8565b5b60006110978482850161101e565b91505092915050565b600073ffffffffffffffffffffffffffffffffffffffff82169050919050565b60006110cb826110a0565b9050919050565b6110db816110c0565b82525050565b60006020820190506110f660008301846110d2565b92915050565b6000819050919050565b600061112161111c611117846110a0565b6110fc565b6110a0565b9050919050565b600061113382611106565b9050919050565b600061114582611128565b9050919050565b6111558161113a565b82525050565b6000602082019050611170600083018461114c565b92915050565b61117f81610ffd565b82525050565b600060208201905061119a6000830184611176565b92915050565b6111a9816110c0565b81146111b457600080fd5b50565b6000813590506111c6816111a0565b92915050565b6000602082840312156111e2576111e1610ff8565b5b60006111f0848285016111b7565b91505092915050565b600081519050611208816111a0565b92915050565b60006020828403121561122457611223610ff8565b5b6000611232848285016111f9565b91505092915050565b600082825260208201905092915050565b7f4e6f74206f776e6572206f6620746f6b656e3100000000000000000000000000600082015250565b600061128260138361123b565b915061128d8261124c565b602082019050919050565b600060208201905081810360008301526112b181611275565b9050919050565b7f43616e6e6f74207377617020776974682073656c660000000000000000000000600082015250565b60006112ee60158361123b565b91506112f9826112b8565b602082019050919050565b6000602082019050818103600083015261131d816112e1565b9050919050565b600060608201905061133960008301866110d2565b61134660208301856110d2565b6113536040830184611176565b949350505050565b7f4e6f7420657363726f7765640000000000000000000000000000000000000000600082015250565b6000611391600c8361123b565b915061139c8261135b565b602082019050919050565b600060208201905081810360008301526113c081611384565b9050919050565b7f4e6f742073656c6c657200000000000000000000000000000000000000000000600082015250565b60006113fd600a8361123b565b9150611408826113c7565b602082019050919050565b6000602082019050818103600083015261142c816113f0565b9050919050565b7f4e6f74206c697374656400000000000000000000000000000000000000000000600082015250565b6000611469600a8361123b565b915061147482611433565b602082019050919050565b600060208201905081810360008301526114988161145c565b9050919050565b7f496e636f7272656374207061796d656e74000000000000000000000000000000600082015250565b60006114d560118361123b565b91506114e08261149f565b602082019050919050565b60006020820190508181036000830152611504816114c8565b9050919050565b7f4e6f74206f776e65720000000000000000000000000000000000000000000000600082015250565b600061154160098361123b565b915061154c8261150b565b602082019050919050565b6000602082019050818103600083015261157081611534565b9050919050565b7f5072696365206d75737420626520706f73697469766500000000000000000000600082015250565b60006115ad60168361123b565b91506115b882611577565b602082019050919050565b600060208201905081810360008301526115dc816115a0565b9050919050565b7f416c7265616479206c6973746564000000000000000000000000000000000000600082015250565b6000611619600e8361123b565b9150611624826115e3565b602082019050919050565b600060208201905081810360008301526116488161160c565b9050919050565b60006040820190506116646000830185611176565b61167160208301846110d2565b939250505056fea264697066735822122089a37f53b7923809420d37a89af9a2e2a5a50ef4849e1052d481657309dc524264736f6c63430008140033",
  "linkReferences": {},
  "deployedLinkReferences": {}
}